:02000002B0004C
:1040000000400B00E6DF0B00000006000C0005027C
:084010000401B41400000000DB
:04401800BCC80B0015
:1040200081F0004102E000BF83F0004330B54FEA69
:1040300041044FEA430594EA050F08BF90EA020FD6
:104040001FBF54EA000C55EA020C7FEA645C7FEA69
:10405000655C00F0E2804FEA5454D4EB5555B8BF8C
:104060006D420CDD2C4480EA020281EA030382EAFD
:10407000000083EA010180EA020281EA0303362D8F
:1040800088BF30BD11F0004F4FEA01314FF4801C62
:104090004CEA113102D0404261EB410113F0004F74
:1040A0004FEA03334CEA133302D0524263EB43032B
:1040B00094EA050F00F0A780A4F10104D5F1200EC9
:1040C0000DDB02FA0EFC22FA05F2801841F1000124
:1040D00003FA0EF2801843FA05F359410EE0A5F1F8
:1040E00020050EF1200E012A03FA0EFC28BF4CF029
:1040F000020C43FA05F3C01851EBE37101F00045DF
:1041000007D54FF0000EDCF1000C7EEB00006EEBEB
:104110000101B1F5801F1BD3B1F5001F0CD3490875
:104120005FEA30004FEA3C0C04F101044FEA4452CC
:1041300012F5800F80F09A80BCF1004F08BF5FEA53
:10414000500C50F1000041EB045141EA050130BD33
:104150005FEA4C0C404141EB0101013C28BFB1F545
:10416000801FE9D291F0000F04BF01460020B1FA90
:1041700081F308BF2033A3F10B03B3F120020CDA63
:104180000C3208DD02F1140CC2F10C0201FA0CF041
:1041900021FA02F10CE002F11402D8BFC2F1200CA6
:1041A00001FA02F120FA0CFCDCBF41EA0C0190405C
:1041B000E41AA2BF01EB0451294330BD6FEA0404A5
:1041C0001F3C1CDA0C340EDC04F11404C4F1200290
:1041D00020FA04F001FA02F340EA030021FA04F3A2
:1041E00045EA030130BDC4F10C04C4F1200220FAF9
:1041F00002F001FA04F340EA0300294630BD21FA37
:1042000004F0294630BD94F0000F83F4801306BFFC
:1042100081F480110134013D4EE77FEA645C18BFF0
:104220007FEA655C29D094EA050F08BF90EA020F87
:1042300005D054EA000C04BF1946104630BD91EA7F
:10424000030F1EBF0021002030BD5FEA545C05D182
:104250004000494128BF41F0004130BD14F58004C1
:104260003CBF01F5801130BD01F0004545F0FE4135
:1042700041F470014FF0000030BD7FEA645C1ABF6A
:10428000194610467FEA655C1CBF0B46024650EAA1
:10429000013406BF52EA033591EA030F41F40021CD
:1042A00030BD00BF90F0000F04BF0021704730B553
:1042B0004FF4806404F132044FF000054FF0000128
:1042C00050E700BF90F0000F04BF0021704730B5E9
:1042D0004FF4806404F1320410F0004548BF4042BE
:1042E0004FF000013EE700BF42004FEAE2014FEA13
:1042F00031014FEA02701FBF12F07F4393F07F4FEE
:1043000081F06051704732F07F4208BF704793F0F0
:104310007F4F04BF41F40021704730B54FF4607403
:1043200001F0004521F000411CE700BF50EA010206
:1043300008BF704730B54FF000050AE050EA0102AF
:1043400008BF704730B511F0004502D5404261EB1F
:1043500041014FF4806404F132045FEA915C3FF460
:10436000D8AE4FF003025FEADC0C18BF03325FEAFD
:10437000DC0C18BF033202EBDC02C2F1200300FAAE
:1043800003FC20FA02F001FA03FE40EA0E0021FAD3
:1043900002F11444BDE600BF70B54FF0FF0C4CF4C1
:1043A000E06C1CEA11541DBF1CEA135594EA0C0F73
:1043B00095EA0C0F00F0DEF82C4481EA030621EAAE
:1043C0004C5123EA4C5350EA013518BF52EA0335E9
:1043D00041F4801143F4801338D0A0FB02CE4FF09B
:1043E0000005E1FB02E506F00042E0FB03E54FF0CB
:1043F0000006E1FB03569CF0000F18BF4EF0010EC3
:10440000A4F1FF04B6F5007F64F5407404D25FEABE
:104410004E0E6D4146EB060642EAC62141EA555171
:104420004FEAC52040EA5E504FEACE2EB4F1FD0CB3
:1044300088BFBCF5E06F1ED8BEF1004F08BF5FEA31
:10444000500E50F1000041EB045170BD06F00046E3
:1044500046EA010140EA020081EA0301B4EB5C0490
:10446000C2BFD4EB0C0541EA045170BD41F4801188
:104470004FF0000E013C00F3AB8014F1360FDEBFAD
:10448000002001F0004170BDC4F10004203C35DA89
:104490000C341BDC04F11404C4F1200500FA05F30C
:1044A00020FA04F001FA05F240EA020001F00042AD
:1044B00021F0004110EBD37021FA04F642EB060123
:1044C0005EEA430E08BF20EAD37070BDC4F10C044D
:1044D000C4F1200500FA04F320FA05F001FA04F211
:1044E00040EA020001F0004110EBD37041F10001FD
:1044F0005EEA430E08BF20EAD37070BDC4F1200508
:1045000000FA05F24EEA020E20FA04F301FA05F26F
:1045100043EA020321FA04F001F0004121FA04F217
:1045200020EA020000EBD3705EEA430E08BF20EAE7
:10453000D37070BD94F0000F0FD101F00046400021
:1045400041EB010111F4801F08BF013CF7D041EAA3
:10455000060195F0000F18BF704703F000465200A7
:1045600043EB030313F4801F08BF013DF7D043EA78
:104570000603704794EA0C0F0CEA135518BF95EA2E
:104580000C0F0CD050EA410618BF52EA4306D1D1B5
:1045900081EA030101F000414FF0000070BD50EAD4
:1045A000410606BF1046194652EA430619D094EA5E
:1045B0000C0F02D150EA013613D195EA0C0F05D148
:1045C00052EA03361CBF104619460AD181EA03019C
:1045D00001F0004141F0FE4141F470014FF0000054
:1045E00070BD41F0FE4141F4780170BD70B54FF0EF
:1045F000FF0C4CF4E06C1CEA11541DBF1CEA13556F
:1046000094EA0C0F95EA0C0F00F0A7F8A4EB050450
:1046100081EA030E52EA03354FEA013100F0888047
:104620004FEA03334FF0805545EA131343EA126310
:104630004FEA022245EA111545EA10654FEA0026C5
:104640000EF000419D4208BF964244F1FD0404F57E
:10465000407402D25B084FEA3202B61A65EB0305DA
:104660005B084FEA32024FF480104FF4002CB6EB97
:10467000020E75EB030E22BFB61A754640EA0C0017
:104680005B084FEA3202B6EB020E75EB030E22BF57
:10469000B61A754640EA5C005B084FEA3202B6EB98
:1046A000020E75EB030E22BFB61A754640EA9C0057
:1046B0005B084FEA3202B6EB020E75EB030E22BF27
:1046C000B61A754640EADC0055EA060E18D04FEAE5
:1046D000051545EA16754FEA06164FEAC30343EA85
:1046E00052734FEAC2025FEA1C1CC0D111F4801F52
:1046F0000BD141EA00014FF000004FF0004CB6E74B
:1047000011F4801F04BF01430020B4F1FD0C88BFE9
:10471000BCF5E06F3FF6AFAEB5EB030C04BFB6EBF4
:10472000020C5FEA500C50F1000041EB045170BDE7
:104730000EF0004E4EEA113114EB5C04C2BFD4EB14
:104740000C0541EA045170BD41F480114FF0000E98
:10475000013C90E645EA060E8DE60CEA135594EA14
:104760000C0F08BF95EA0C0F3FF43BAF94EA0C0F17
:104770000AD150EA01347FF434AF95EA0C0F7FF48C
:1047800025AF104619462CE795EA0C0F06D152EAE0
:1047900003353FF4FDAE1046194622E750EA4106C4
:1047A00018BF52EA43067FF4C5AE50EA41047FF4D5
:1047B0000DAF52EA43057FF4EBAE12E74FF0FF3C3A
:1047C00006E000BF4FF0010C02E000BF4FF0010C0B
:1047D0004DF804CD4FEA410C7FEA6C5C4FEA430C84
:1047E00018BF7FEA6C5C1BD001B050EA410C0CBFD3
:1047F00052EA430C91EA030F02BF90EA020F002035
:10480000704710F1000F91EA030F58BF994208BF9B
:1048100090422CBFD8176FEAE37040F00100704758
:104820004FEA410C7FEA6C5C02D150EA013C07D1AF
:104830004FEA430C7FEA6C5CD6D152EA033CD3D0FA
:104840005DF8040B704700BF8446104662468C46F4
:104850001946634600E000BF01B5FFF7B7FF002827
:1048600048BF10F1000F01BD4DF808EDFFF7F4FF50
:104870000CBF012000205DF808FB00BF4DF808EDDB
:10488000FFF7EAFF34BF012000205DF808FB00BFFE
:104890004DF808EDFFF7E0FF94BF012000205DF820
:1048A00008FB00BF4DF808EDFFF7CEFF94BF0120D5
:1048B00000205DF808FB00BF4DF808EDFFF7C4FFCE
:1048C00034BF012000205DF808FB00BF4A0011D270
:1048D00012F5001211D20DD56FF47873B3EB62525A
:1048E0000ED44FEAC12343F0004343EA505323FA66
:1048F00002F070474FF00000704750EA013002D1DB
:104900004FF0FF3070474FF0000070474FEA410210
:10491000B2F1E04324BFB3F5001CDCF1FE5C0DD91D
:1049200001F0004C4FEAC0024CEA5070B2F1004F67
:1049300040EB830008BF20F00100704711F0804F6A
:1049400021D113F13872BCBF01F00040704741F42F
:1049500080114FEA5252C2F11802C2F1200C10FA33
:104960000CF320FA02F018BF40F001004FEAC12317
:104970004FEAD32303FA0CFC40EA0C0023FA02F3BB
:104980004FEA4303CCE77FEA625307D150EA013391
:104990001EBF4FF0FE4040F44000704701F0004061
:1049A00040F0FE4040F40000704700BFD0B50C4B13
:1049B000002206460F46FFF7EFFCFFF787FF04468D
:1049C000FFF770FC074B0022FFF7E6FC02460B46A0
:1049D00030463946FFF728FBFFF778FF2146D0BD68
:1049E0000000F03D0000F04110F8012B11F8013BF0
:1049F000012A28BF9A42F7D0D01A7047034613F80D
:104A0000012B002AFBD1181A0138704738B5002253
:104A1000002304460D46FFF731FF28B920462946FA
:104A2000BDE83840FFF7C2BF204605F10041FFF75F
:104A3000BDFF404261EB410138BD00BF09480A4952
:104A4000884208B505D0094A824202D0121A05F000
:104A5000E5FE0748074A0021121A05F007FF014842
:104A600008BD00BF40E30320CCDD0B002CE5032094
:104A70002CE50320F0E7032070B5074E074C05F046
:104A800065FCA41BA4080025AC4200D170BD56F8FB
:104A9000043B98470135F7E784DD0B00A8DD0B00E8
:104AA00000F0F8B808B500F073F9BDE8084005F06B
:104AB00005BC02F0E5BB02F0E3BB02F0E9BB02F08B
:104AC000E7BB000008B5034A03490C2002F014FBC1
:104AD000FEE700BF896D0B00D0C80B000078B0FA6C
:104AE00080F040097047012303707047704770479A
:104AF000B0B52DED028B02F1080388B023F0070357
:104B000000AFADEB030D14460546684605F086FE82
:104B10000023694638460DF8043004F0F0FE3846AC
:104B200004F06AFF294607F11000B0EE408A04F055
:104B3000E6FE0D4907F1100004F049FFFDEEC87ACA
:104B400017EE903A68B1094A136007F1100004F0BB
:104B50008BFE384604F088FE2037BD46BDEC028B44
:104B6000B0BD034AF0E700BF60E5032040E3032047
:104B700044E3032010B510210446FFF7A0FF2046B0
:104B800010BD00000A4B10B50446036003F026FE7A
:104B9000214604F05EF805F00BFB05F0FDFA204617
:104BA000044B40F8043B03F0EFFE204610BD00BF6D
:104BB000D8C90B00C0C90B0010B50446FFF7E2FFCF
:104BC00020462421FFF77BFF204610BD0EB403B51D
:104BD00003AB002153F8042B019304F048FD02B00D
:104BE0005DF804EB03B0704773B5044608462279BC
:104BF000A36832B1A3B90B4902B0BDE8704004F01C
:104C0000FBBC094A267B094D0949647B012E18BF6C
:104C10002946CDE900140749FFF7D8FF02B070BD5F
:104C2000054AEFE7F6C80B00D3D60B00F2C80B001D
:104C3000EEC80B000CC90B00E5C80B000EB400B5A4
:104C40008CB00DAA4FF0200C52F8041B0392CDE952
:104C500000120023016804AA1E20CDE904C302F05B
:104C60005BFA0CB05DF804EB03B0704708B502497D
:104C70000248FFF7E3FF08BDC7D50B00A8E60320F5
:104C800008B502490248FFF7D9FF08BD29C90B0042
:104C9000A8E6032070B52D482D4C90B001F0B6FF6A
:104CA0002C4B2D48196801F065FF2C4B2A481968D8
:104CB00001F060FF02F02EFD02F048FD02F02AFD37
:104CC0002749002203F0D7F802F024FD25490022ED
:104CD00003F0B2F803A802F0F9FE0FCC06AD0FC541
:104CE00006AD0FCD26680BAC0FC40BA8266002F0F2
:104CF000F1FB04460BA80CBB02F0EEFB0094ADF8F0
:104D00000A0002230DF10A02032103A802F0D3FED8
:104D100002F000FD002203A902F074FD0BA801F0CF
:104D2000AEFA50210BA801F0B7FA0BA90E4801F01A
:104D300015FB039802F0ACFA10B070BD02F0CEFB88
:104D400000230093024610230721DEE7E0E503205D
:104D500074E6032060E5032080E5032070E503206E
:104D60006D4C0B00814C0B0038E5032010B5074C4F
:104D7000204600F0CBFE0121204600F04EFD00222F
:104D80004FF00113C4E9042310BD00BFE0E5032088
:104D90001FB51C4801F063FF1B4801F05BFCD8B154
:104DA000194801F09FFDFFF7E1FF1848694601F03F
:104DB000ABFA70B11649134804F031FC154B164A92
:104DC0001B68126815490F48FFF700FF0D4801F0F6
:104DD0000BF905B05DF804FB684602F0E1F90099B3
:104DE000094801F027FD684604F03EFD0C4B0648DB
:104DF000196801F0BFFE0B4B0348196801F0BAFEB9
:104E0000D1E700BFE0E5032080E5032038E503207B
:104E100036C90B0044E3032040E3032048C90B00DC
:104E200060E5032070E5032070B5D0E90053142637
:104E3000044606FB0356AE4204D0284604F014FD97
:104E40001435F8E7206802F023FA204670BD884246
:104E5000F8B504460D46164616D9904215D2A2F171
:104E60001406751AA1F114072C44B7421CD02CB1BA
:104E70003146204604F074FD337C2374304604F040
:104E8000F3FC143E143CF0E70ED0B5420CD02CB12C
:104E90002946204604F064FD2B7C2374284604F048
:104EA000E3FC14351434F0E7F8BD2DE9F04100239C
:104EB000C0E9003383604F689F4204460E4623DDFD
:104EC0004FF0140808FB07F002F0DAF90546D8B1F4
:104ED000D4E9001208FB0212FFF7B9FF206802F0C4
:104EE000D7F92560A760D6E9007308FB0378B845B9
:104EF00008D03946284604F04DFD3B7C2B7414370E
:104F00001435F4E7736863602046BDE8F081000063
:104F100030B5002191B0012002F026F9002340F2C3
:104F20005B723B4900933B483B4B3C4C3C4D01F092
:104F3000B5FA3C493C4804F0E2FC3C493C4804F0EA
:104F4000DEFC07213B4801F033FE0821204601F03A
:104F5000ADF9394B23602978BFF35B8F11F0010164
:104F60000BD128460391FFF7B9FD039928B13348C7
:104F700004F0BAFB2846FFF7B6FD304B304AE36039
:104F8000A26103232F4A2361226200230122A2840B
:104F900023752377CDE90433069305F009F904A9B5
:104FA000054607A8284CFFF780FF07A90AA8FFF7C6
:104FB0007CFF264B23600AA90DA8FFF776FF0DAAF8
:104FC0001E21201D03F028FF0DA8FFF72DFF0AA8C2
:104FD000FFF72AFF1E4B2360256207A8FFF724FF77
:104FE0001C4B236005F0E4F84FF4165105F0D0F89F
:104FF00003F0F4FB214603F0E5FD04A8FFF714FFDE
:105000001549164811B0BDE8304002F0D9BA00BFCA
:105010004EC90B0080E50320F14A0B0038E5032060
:105020002CE503205DC90B0060E503206DC90B0072
:1050300070E50320E0E50320A0D40B0030E5032059
:10504000ACC90B008096980050E60320C0C90B0045
:1050500008D70B00D8C90B007DC90B0074E60320EC
:105060002DE9F04F85B01F46BDF93880BDF83C30C2
:10507000A8EB0209A7EB010AB9F1000FB8BFC9F10B
:105080000009BAF1000FB8BFCAF1000AD145834642
:105090000C46154604DD3A462C4647460D469046DA
:1050A000BC4205DD2A464546904622463C46174608
:1050B0003E1BB2B20092A8EB050282EAE271A1EBBC
:1050C000E271C6F3C03202FA86F64545B4BF01224A
:1050D0004FF0FF32019176100292BC421CDCDBF8EB
:1050E00000200393D145D2F81880C7BF2946224635
:1050F0002A4621465846C047019A039BB61AB1B2C8
:1051000036B2002E05DA029A1544009A56182DB2CE
:1051100036B2013424B2E0E705B0BDE8F08F704745
:1051200010B404682469A4465DF8044B604730B4A9
:105130000468BDF808500295A46BA44630BC6047D3
:1051400030B40468BDF808500295E46BA44630BC46
:10515000604770B4BDF90C50BDF810600468CDE92B
:105160000356246CA44670BC60472DE9F3411C46ED
:105170000368BDF820805B6905461646013C34444F
:105180000F4624B298472B68CDF8048000949C6A9F
:1051900028463B4632463946A0472B68DB6A2846FC
:1051A00002B0BDE8F04118472DE9F3411D46036800
:1051B000BDF820805B69044617460E469847CDE946
:1051C000007822686B1E3344956A20461BB23A462B
:1051D0003146A8472368DB6A204602B0BDE8F041AB
:1051E00018472DE9F3471E460368BDF928905B690F
:1051F000BDF82C800C460546174698472644B44215
:105200002B680BDACDF80080D3F820A021464B465E
:105210003A4628460134D04724B2F0E7DB6A2846F4
:1052200002B0BDE8F047184713B502680191B0F924
:105230000E100091146CB0F90C3000221146A047FA
:1052400002B010BD2DE9F74399421646BDF928700A
:10525000BDF82C90026880460D461C4613D1BE4214
:10526000C8BF3346CDF82890C4BF3E461F467B1CBE
:10527000946B9B1B1BB2324629464046A44603B0A2
:10528000BDE8F0436047BE420AD19942C2BF0B4617
:1052900025461C46631CCDF82890D46B5B1BE9E7C0
:1052A00053699847CDE90079D8F8003040469F6AA5
:1052B000324623462946B847D8F80030DB6A4046D4
:1052C00003B0BDE8F04318472DE9F3471D460368D6
:1052D000BDF82C805B69BDF9289004460F46164640
:1052E00098472368CDF80080D3F824A032462B4697
:1052F00039462046D0472368CDF8008009F1FF32B7
:105300003244D3F824A039462B46204612B2D04767
:105310002368CDF80080D3F820A032464B463946AA
:105320002046D0476B1ED9192368CDF800801D6A2E
:1053300020464B46324609B2A8472368DB6A20461E
:1053400002B0BDE8F0471847704701F00303B0F919
:105350000A208376C907B0F9083059BF8381C2811A
:105360008281C3817047000030B54281C281074A03
:10537000074D0181002481814FF0FF31C0E9051202
:105380004460056004610477046230BD01010001DE
:10539000F0CE0B002DE9F04F89B0CDE90212026882
:1053A000BDF948800493BDF94C3052690593BDF8AE
:1053B00050A00446904718F107024FF0000648BF7E
:1053C00008F10E024FEAE20B01963546039B019A63
:1053D000BDF904109A18059B8B4212B227DD049B7D
:1053E00033444FF0000906930FFA89F080451FFA05
:1053F00089F117DD4F0705BF069BC0106D001D5CCE
:1054000018BFEDB22B060AD5029B206807921944FB
:10541000836909B21F4620465346B847079A09F1E7
:105420000109E1E7019B013301935E44CEE7236864
:10543000DB6A204609B0BDE8F04F18472DE9F04F70
:105440002DED028B91B01646026ABDF874809DF86E
:1054500078509DF87C4003911F46BDF8703004934E
:105460008346002A40F0C580B0F90C308B4240F3EF
:105470004C81B0F90E30B34240F34781062313FB51
:105480000513002B40F3418106EBC403002B40F3CE
:105490003C81037F1BB9AF2F84BF0137FFB2DBF81C
:1054A000003058465B699847052209920022059210
:1054B000984A07EB8703D3180C93B3B20693059A67
:1054C0000C9B9B5C0793ABB20B93BDF80C3008931D
:1054D000039B02FB05F919FA83F90FFA89F308EE29
:1054E000103A08230A93039B02EB030A4FF00009CA
:1054F0000FFA8AFA079ADBF80030D20752D5012D4D
:105500001FFA89F23ED1012C3CD19B6906991F46B6
:10551000049B0A4412B251465846B84709F10103A8
:105520004FFA83F9079B5B0807930A9B013B13F033
:10553000FF030A93DED1059F01377BB20593099BD8
:10554000013B13F0FF030993B9D1049B43450FD0EE
:10555000012DDBF800303BD1012C39D10899CDF871
:10556000008005311C6A3246082309B25846A0471C
:10557000DBF80030DB6A584611B0BDEC028BBDE8A9
:10558000F04F1847069914FB02F20A44049901915E
:105590000094DB6918EE101A1F4612B22B465846CB
:1055A000B847BBE7049A4245B8D0012D1FFA89F2EB
:1055B00007D1012C05D19B6906991F460A44434631
:1055C000A8E70699CDF8048014FB02F20A44DFE74D
:1055D0000B9ACDF8048002EB8201089AE4000A4499
:1055E00011460094DC6932462B4609B25846A04762
:1055F000BEE7137A516812680B92FF1AFFB201EBF3
:10560000C70331F8372006929A780992DA780C921B
:10561000012D93F9052093F906A00A9201D8012CD7
:1056200057D9BDF9283008930FFA8AF30793DBF8AE
:10563000003058465B699847B3B24FF000080E93AC
:105640001AFA86F3C14647460F930C9B9F428FD2AE
:10565000079B0E9A3B4403FB0423002205920F9AFA
:105660001BB202EB070A08EE103A0FFA8AFA434619
:10567000099A0599914241D25A1CD2B25B070D9208
:1056800007D1069B06990B9A01339BB212F8019041
:10569000069319F0800F12D0012DDBF80030BDF811
:1056A0000C101AD1012C18D10A9A9B691144059A41
:1056B00011441E465246049B09B25846B047059E07
:1056C0000136F3B24FEA490905935FFA89F90D9B58
:1056D000CEE70023CDE90733A9E70598089A0244ED
:1056E00002FB0511049ACDE90042DB6918EE102A8D
:1056F0001E4609B22B465846B047E0E7099B0137E2
:1057000098445FFA88F8FFB29FE711B0BDEC028BB6
:10571000BDE8F08FE8C90B00F0B5026A85B0044619
:105720000B46002A34D10A2908D1438A0282427EDC
:1057300003EBC2036382012005B0F0BD0D29FAD04E
:10574000E17E007E657E71B1B4F91060062111FB27
:105750000061B4F90C60B142C1BFB4F912102282E9
:1057600001EBC5026282E28A0192A28A0092CDE92F
:105770000205B4F91220B4F910102046FFF75EFEBE
:10578000237E228A03EB430302EB43032382D2E707
:105790000A2907D100230382417E927A438A01FBC2
:1057A0000233C7E70D29C6D0157AA942C3D3517A6F
:1057B0009942C0D351685D1BEDB201EBC505A878D5
:1057C00028B3E97819B3E17E267E677E91B195F919
:1057D00005100844B4F9101006FB0011B4F90C00D0
:1057E000814207DD00202082B4F91210927A02FB78
:1057F00007126282E28A0192A28A0092CDE90267D0
:10580000B4F91220B4F910102046FFF717FE2979D9
:10581000227E238A01FB0233B8E7012938BF012128
:10582000017641767047000010B5044B03600446D2
:10583000C06A08B101F02CFD204610BDE8D30B0072
:1058400010B50446FFF7F0FF20465021FFF737F967
:10585000204610BD002910B54BDBB0F90C408C423E
:1058600047DD002A45DBB0F90E40944241DD847EDD
:10587000022C1FD0032C26D0012C04D10489D24342
:1058800014440A4621B2012B23D0022B32D083BB11
:10589000002A13460489C06AB8BFD31DDB1013FB6E
:1058A000041102F0070201239340425C22EA030242
:1058B00042541EE00489013C611A4489D2432244C7
:1058C00009B212B2DFE74489013C641A114622B2E0
:1058D000D9E7002A04891346B8BFD31DDB1013FB98
:1058E0000411C36A02F0070001228240585C02439F
:1058F0005A5410BD002A13460489C06AB8BFD31D8C
:10590000DB1013FB041102F00702012303FA02F279
:10591000435C5A40CCE7000070B504461D460026A3
:10592000FFF722FD114B2360666215B904F0D6FD26
:105930000546FF2384F8333084F836309DF9103063
:1059400084F837300A4BA363012384F83C30059B6D
:10595000A3644FF6FF72069BA286C4E90A5626642A
:10596000A4F84460E364204670BD00BFE8D30B0098
:10597000ACC90B00F8B50446806A0D4690B194F9A5
:10598000301002F035FBA06A036800219B6898473D
:10599000A06A036829469B689847A06ABDE8F8405A
:1059A00002F02DBB94F93530014698B204F04FFD5A
:1059B000606A20B12946BDE8F84003F04FBF0826D1
:1059C000802794F9330005EA070180B204F03FFD17
:1059D00094F93400012180B204F039FD94F93400C7
:1059E000002180B204F033FD013E4FEA5707E8D1B1
:1059F000F8BD38B50446806A0D4680B1A16C02F04E
:105A0000E9FA002D204614BFA721A621FFF7B2FF17
:105A1000A06A88B1E16CBDE8384002F0DBBA606A88
:105A200018B104F1380103F0ABFE94F936000021FF
:105A300080B204F00CFDE4E794F93600012180B255
:105A400004F005FD606A18B1BDE8384003F07EBE81
:105A500038BD2DE9F8430446806A0D468F1840B3DF
:105A600094F9301002F0C4FAA06A036800219B6820
:105A700098470126AF42A06A17D01F2E0CD902F01A
:105A8000BEFA94F93010A06A02F0B2FAA06A036874
:105A900000219B6898470126A06A15F8011B03683E
:105AA00001369B689847F6B2E4E7BDE8F84302F098
:105AB000A6BA94F93530014698B204F0C8FCBD424C
:105AC00022D0606A15F8019B18B1494603F0C6FE62
:105AD000F5E708264FF0800894F9330009EA080139
:105AE00080B204F0B4FC94F93400012180B204F0D7
:105AF000AEFC94F93400002180B204F0A8FC013E11
:105B00004FEA5808E8D1DAE7BDE8F883B0F90A307F
:105B1000DA1D48BF03F10E02B0F90830C06AD21096
:105B20005A43002104F0A2BE2DE9FF411E46C36A7C
:105B30009DF8288004460F461546C3B12046FFF75E
:105B4000E5FFB4F90A00B4F90810202821DC20236D
:105B500001222038CDE9013200EBD0707323733974
:105B6000009301EBD171894B40F34F0221E0B0F972
:105B70000A30D81D48BF03F10E00B4F90830C01038
:105B8000584301F07DFBE0620028D7D104B0BDE8A6
:105B9000F0814038C0F3C03202FA80F24023012085
:105BA000CDE90130522352390093794B01EBD17189
:105BB0005210204641F34F01FFF7ECFBA06A84F836
:105BC0003170002878D0002D74D1B4F90A30202B20
:105BD0000CBF3C253D2584F83050B8F1000F01D0B2
:105BE00002F0FCF9FEB194F9370000281BDB01211B
:105BF00080B204F01BFC94F93700012180B204F05C
:105C000026FC012001F084FB94F93700002180B2CA
:105C100004F01DFC0A2001F07BFB94F93700012100
:105C200080B204F014FCA06A002874D0A16C02F0C9
:105C3000D1F9042257492046FFF70BFF618901394A
:105C4000C9B22046FFF796FE534904222046FFF7CB
:105C500000FF94F93130012B0CBF10211421204694
:105C6000FFF788FE04224D492046FFF7F2FEA368A5
:105C70004B4A93425CD14B4904222046FFF7E9FE90
:105C8000D9212046FFF776FE94F93130012B0CBF65
:105C90002221F1212046FFF76DFE204642490622CF
:105CA000FFF7D7FEA06A002863D0E16C02F092F9FA
:105CB00001206BE76DB28EE794F93500012180B2C7
:105CC00004F0B4FB94F93600012180B204F0AEFB7D
:105CD00094F93600012180B204F0B9FB656A3DB148
:105CE000B8F1000F3FF47EAF284603F007FD79E7D7
:105CF00094F93300012180B204F098FB94F9340048
:105D0000012180B204F092FB94F93400294680B25C
:105D100004F09DFB66E7606A18B104F1380103F0F6
:105D20002FFD94F93600002180B204F090FB80E74B
:105D30001E4A93420ED11E4903222046FFF789FED8
:105D400094F93130012B0CBF9F21CF212046FFF762
:105D500011FE95E7174A934292D117490322204634
:105D6000FFF777FE94F93130012B0CBF1021AF21E2
:105D7000ECE794F93600012180B204F068FB606A18
:105D8000002895D003F0E2FC92E700BF00D20B00A0
:105D900040CF0B0048D40B004CD40B0050D40B0068
:105DA000800020005AD40B0054D40B008000400027
:105DB0005ED40B006000100061D40B0070B5002AA7
:105DC000BDF810503DDBB0F90A40944239DD00299E
:105DD000BEBF5B181BB20021B0F90840CE18A64226
:105DE000C4BF631A1BB2002B2BDDC06AD61014FB94
:105DF0000611014402F0070001228240012DD2B2B7
:105E000016D0022D0BD0E5B9D243D2B20B44994241
:105E100017D011F8010B104001F8010CF7E70B4403
:105E200099420ED011F8010B504001F8010CF7E730
:105E30000B44994205D011F8010B104301F8010CF5
:105E4000F7E770BDF0B50029BDF8145076DBB0F966
:105E50000860B14272DA002ABEBF9B181BB2002252
:105E6000B0F90A40D718A742C4BFA31A1BB2002B2F
:105E700064DDC2F3C404C76A16FB041612F00702FD
:105E8000DBB207EB060423D0C2F10802D2B22D49DF
:105E900093423CBF4FF0FF0CA2EB030E895C3CBF6A
:105EA0004CFA0EFC0CEA0101012D07D0022D2ED078
:105EB0004DB917F806C02CEA010103E017F806C037
:105EC00041EA0C01B955934238D3B0F908100C449B
:105ED0009A1AD2B2072A0ED9022D1DD11346217863
:105EE000C9432170083BB0F90810DBB2072B0C4402
:105EF000F5D802F007020AB3134B012D9B5C1AD0B0
:105F0000022D1CD0D5B9227822EA030315E017F838
:105F100006C081EA0C01D5E7291E18BF01214942BC
:105F2000C9B213462170083BB0F90860DBB2072BF9
:105F30003444F7D8DDE7227813432370F0BD22788C
:105F40005340FAE738D40B0040D40B0070B4144629
:105F5000827EBDF80C60022A0DD0032A18D0012AD7
:105F600011D10289E443144424B203960A4621461F
:105F700070BCFFF767BF42890589E44319441444A4
:105F8000691A24B209B20396224670BCFFF716BF05
:105F900045891944691A09B2E7E730B41446827E8C
:105FA000BDF80850022A0DD0032A18D0012A11D1B9
:105FB000E2180489A41A24B202950A46214630BC8C
:105FC000FFF7FCBE0289C9431144E2184489A41AB0
:105FD00009B224B20295224630BCFFF733BF428992
:105FE000C943114409B2E7E72DE9F8430446806A42
:105FF000002842D0A16C01F0EDFF47490522204660
:10600000FFF727FD218901392046C9B2FFF7B2FC0D
:10601000B4F90A30DE1D48BF03F10E06D4E90A05C3
:106020002389F61013FB06F615FA86F600283AD0F7
:1060300094F9301001F0DCFFA06A036840219B68EE
:1060400098470127B542A06A24D01F2F0CD901F030
:10605000D6FF94F93010A06A01F0CAFFA06A036865
:1060600040219B6898470127A06A15F8011B036827
:1060700001379B689847FFB2E4E7606A18B104F102
:10608000380103F07DFB94F93600002180B204F062
:10609000DEF9B2E701F0B3FFA06A78B3E16CBDE8C6
:1060A000F84301F097BF94F93500012180B204F064
:1060B000CEF9AE42F0D0606A15F8019B18B149469E
:1060C00003F0CCFBF5E708274FF0800894F9330084
:1060D00009EA080180B204F0BAF994F93400012108
:1060E00080B204F0B4F994F93400002180B204F0D5
:1060F000AEF9013F4FEA5808E8D1DAE794F93600E3
:10610000012180B204F0A3F9606A18B1BDE8F84338
:1061100003F01CBBBDE8F88364D40B0000210A2205
:10612000C0E900127047002310B50446C1718371A5
:1061300088B204F0A5F908B10323A37100F02CFE86
:10614000206010BD38B50C4605461146A0B204F0DB
:106150006DF921462846BDE83840FFF7E4BF38B561
:106160000446C07904F08CF9A579003825F00803BD
:1061700018BF0120C5F340058542A3710AD000F085
:106180000BFEA379206083F00203A371A079C0F312
:10619000C00038BD00F000FE2368C01AA3889842F2
:1061A000F4D3A37903F00103AB42EFD000F0F4FD88
:1061B000A379206083F0010343F00803E5E770470B
:1061C00010B528210446FEF77AFC204610BD10B514
:1061D000044600F11801C06803F0D2FA208A0021B9
:1061E000BDE8104004F033B910B504460121008A1F
:1061F00004F02DF9E068BDE8104003F0A7BAF8B547
:106200001E4603685B690F46144605469847012EF3
:1062100088BF47F04007E86847F0800103F01EFBA5
:106220002644B44206D0E868002103F017FB04F8C6
:10623000010BF6E72B6828469B6998470120F8BDBB
:10624000F8B51E4603685B690F4614460546984735
:10625000012E88BF47F04007E868394603F0FEFA90
:106260002644B44205D014F8011BE86803F0F6FA9E
:10627000F7E72B6828469B6998470120F8BD002264
:10628000027042708270C270027142718271C2717A
:106290000272427282727047002241F0070101705F
:1062A000027182704270C27142727047024AC0E944
:1062B000002100220272704784D40B0013B50368DA
:1062C00001AADC680123A0479DF8040002B010BDBC
:1062D00038B505460A240F212846FFF7EFFF33287B
:1062E0004FF0010004D001F013F8013CF3D1204637
:1062F00038BD10B50446018AC06803F013FA204681
:10630000BDE81040FFF7E4BFF7B50C46272105466E
:10631000FFF7D4FF00F00800002814BF0126002674
:106320000FD02B686A46DF68282106232846B84725
:10633000BDF800302380BDF802306380BDF8043022
:10634000A380304603B0F0BD13B503688DF8042078
:106350001C6901AA0123A04702B010BD70B50368F3
:106360009B6804460D469847064630B903F020FF67
:10637000274903F054F9304670BD2A782021204681
:10638000FFF7E2FF6A7821212046FFF7DDFFAA78B8
:1063900022212046FFF7D8FFEA7823212046FFF785
:1063A000D3FF2A7924212046FFF7CEFF6A792521E1
:1063B0002046FFF7C9FFAB791BB126212046FFF726
:1063C0007DFFAA7A2E212046FFF7BEFFAB785B0641
:1063D000D1D5EA7932212046FFF7B6FF2A7A332158
:1063E0002046FFF7B1FF6368002B0ADB6A7A22724E
:1063F00020463021FFF7A8FF31212046FFF75EFF3E
:10640000B9E70022227230212046FFF79DFFB2E754
:1064100069D40B0091F85C3010B50446016013B1EB
:10642000886D00F079FC204610BD10B5036893F824
:106430005C20044612B1986D00F076FC204610BD39
:10644000F8B51F469DF8243004460D4616462BB17C
:10645000012380F85C30583000F04EFC089B236329
:106460000023636306B1A66425B1294604F1380010
:1064700003F09BFA069B2365079BE069A4F84C7028
:10648000FF2BB8BFFF23A4F8543008B1FEF715FB6B
:10649000B4F85400FEF70FFBE061F8BD2DE9FF41B1
:1064A00004460025174698460E4603F0A5FD0D4903
:1064B000E56104F1380003F022FA9DF82830A56464
:1064C000CDE90283FF220F23CDE90032204684F874
:1064D0005C503B462A463146FFF7B2FF204604B0E7
:1064E000BDE8F081D3D60B0010B50446204603F07A
:1064F000DFFC0028FAD0204603F0C4FAC0B210BD79
:106500002DE9F04705468846FFF7EEFFEB69187066
:10651000EB6993F800A04FF001090AF0F00A002798
:106520004C462846FFF7E0FF2646EB69985500F0F9
:106530007F0313FB09F31F4401340306A4B2BFB267
:106540004FEAC919EDD4631EBAF1300F88F8003054
:106550001ED12846FFF7C8FFEB6918552846FFF7FC
:10656000C3FFF41C0236B6B2EB69A4B298550226FA
:10657000B6B2BE420ED22846FFF7B6FFB5F8543089
:10658000A34284BFEB6918550134A4B20136EFE78A
:106590000026EDE7B5F85430A3422CBF204600207A
:1065A000BDE8F0872DE9F34115461E461A46074619
:1065B0000023964602A802F07F0CBEF17F0F03F184
:1065C0000104034488BF4CF0800CBEF17F0F4FEAFA
:1065D000D212E4B203F804CC1ED8C4F10403C4F10F
:1065E0000500E954224601A9284405EB030804F0FC
:1065F00015F9721C22444146384603F02EFA05462E
:1066000000F0CAFB621C78623244A8B2131A5842E6
:10661000584102B0BDE8F0812346CAE70233F0B525
:10662000054698B20023CE5C9CB256B1B5F854C072
:10663000844503F1010704D9441C16543B46A0B21B
:10664000F1E799B2411A0A44210A02F8021C02F841
:10665000013CF0BD38B5044603F04CFB002814BFE4
:106660000125002502D1204603F07CFC284638BDD8
:106670002DE9F04788B00446DDF840809DF850A031
:10668000894617461E46FFF7E5FF0546002840F0FD
:10669000CD80214601A8FFF7BDFEA16C002940F086
:1066A0008880B4F84C20A16B2B46204603F0A4FA56
:1066B00000287AD0012323849DF85430E269042B0A
:1066C0005B4B40F08180186899889B79ADF80C107D
:1066D0008DF80E300290C2F805009DF80E30BDF81E
:1066E0000C10A2F80910D3720C23B8F1000F00F0BF
:1066F00081809DF848009DF84420400140EAC20096
:1067000040F00600C0B2BAF1000F01D100F0FD0068
:106710001FB1002E70D140F08000E269D054226D8C
:10672000E169581C12120A549A1CE169206D8854C0
:106730000333E26949462046FFF770FF0346B8F18C
:10674000000F0BD0E26941462046FFF767FFE26980
:10675000139903462046FFF761FF034667B1E269DC
:1067600039462046FFF75AFF03462EB1E26931460B
:106770002046FFF753FF0346053BE2699BB2102119
:106780002046FFF70FFF00F007FBC4E909004FF4B4
:106790007A76204603F08CFB88BB00F0FDFAA36AF2
:1067A000C01A236D73439842F3D9204603F0DAFBF5
:1067B00035E002A801F0A4FCB4F84C202B4602A955
:1067C000204603F0F9FA73E7D3F80700D3F80B106B
:1067D000DB7B0DF1080CACE803008CF8003002AB59
:1067E00003CBC2F80500C2F809109CF800305373BF
:1067F0000E237AE7022086E740F0C0008DE702A969
:106800002046FFF77DFE0428CFD1E369DE78002E15
:10681000CBD100F0C1FA0125A06284F82C6001A858
:10682000FFF703FE284608B0BDE8F0870025F9E72A
:1068300094C80B007FB501230422CDE90432002364
:10684000CDE90233CDE900331A46FFF711FF07B057
:106850005DF804FB73B504460E46FFF7FBFE0546E4
:10686000C8B1214601A8FFF7D5FDE36962221A707D
:10687000E36902225A70E369320A9A70E369DE70B2
:10688000E1690422204603F0E8F8051E01A818BFBC
:106890000125FFF7CAFD284602B070BD73B5044656
:1068A0000E46FFF7D7FE0546C8B1214601A8FFF7FF
:1068B000B1FDE36972221A70E36902225A70E3693A
:1068C000320A9A70E369DE70E1690422204603F01F
:1068D000C4F8051E01A818BF0125FFF7A6FD28462C
:1068E00002B070BD2DE9F04F2DED028B87B000AFE7
:1068F0000446FFF7AFFE8146F8B1214607F11400C8
:10690000FFF788FD00F048FA236D4FF47A72534385
:10691000A26A821A9A42064603D8626A821A93428F
:1069200021D294F82C307BB1204603F01BFB4FF0B2
:10693000000907F11400FFF778FD48461C37BD46F3
:10694000BDEC028BBDE8F08FE269C0211170E269F5
:106950005370E1690222204603F07FF8C4E909661A
:10696000012384F82C30204603F0A2FA0028E0D05E
:1069700007F113012046FFF7C3FD83460028D8D056
:10698000E369A662197801F0F002302A7FD1D4F8C9
:1069900030A0BAF1000FCCD097F813C06A4608EEC9
:1069A000102A03EB0C025178957805EB0125ADB266
:1069B00005F108026946D208A1EBC20295460CF126
:1069C0000302FA6003EB020E0DEB05026846C7F8FE
:1069D00008D07A60D7E901218A4206D00A461EF81B
:1069E000018B02F8018BBA60F4E70022425593F85C
:1069F0000080F96808F00608ABEB0C02033AB8F126
:106A0000020FA2EB0502294425D113F801E0194435
:106A1000023A91F801B00CF10501294419440BEB3D
:106A20000E2BD047E36940221A70E3691FFA8BFBF3
:106A300083F80180E3694FEA1B229A70E36983F8C7
:106A400003B0E1690422204603F007F8666218EEFD
:106A5000103A9D466DE7B8F1040F15D113F801E027
:106A60001944023A91F801B00CF105012944194486
:106A70000BEB0E2BD047E36950221A70E369022218
:106A80001FFA8BFB5A70D5E71944D047DFE7502A2D
:106A900008D19A78D97801EB022189B22046FFF714
:106AA000D9FE46E7402A12D1626B002A3FF441AF7B
:106AB000BBF1040F7FF43DAF11F0060F7FF439AF47
:106AC0009978D87800EB012080B2904731E7602AAE
:106AD00008D19A78D97801EB022189B22046FFF7D4
:106AE000DDFE26E7702ADFD0902A3FF422AFC02ACD
:106AF0000AD1D0221A70E36900225A70E169022299
:106B0000204602F0AAFF14E7D02A04BF002384F82D
:106B10002C300EE7F7B504460F461646FFF79AFDF0
:106B2000054610B3214601A8FFF774FC238C0133FE
:106B30009BB2EBB12384238CE2691B0A5371E36996
:106B4000228C9A71E269072339462046FFF766FDD9
:106B5000E3691E54043883B2E26982212046FFF7BC
:106B600021FD054601A8FFF760FC284603B0F0BDF3
:106B70000123DFE70022FFF7CDBF000010B5064B71
:106B800003600446006D08B100F0BEF82046FEF731
:106B90004BFE204610BD00BFC4D40B0010B5044608
:106BA000FFF7ECFF20467021FDF789FF204610BD5E
:106BB00030B585B004460D4603F090FC104A1149EB
:106BC000CDE901214FF0FF3280210346009220469B
:106BD0002022FEF7A1FE0C4B23600023C4E91435EC
:106BE00004F15800FFF79AFA04F16000FFF796FAF3
:106BF00004F16800FFF792FA204605B030BD00BFEF
:106C0000801A0600A0860100C4D40B0013B5044608
:106C1000503000F071F8636DD90705D502220421C8
:106C200004F15800FFF78EFA636D9A0705D500222C
:106C3000032104F16000FFF785FA636D5B0705D55A
:106C40000222114604F16800FFF77CFA0123009349
:106C50003C2202212046FEF767FF02B010BD10B5AE
:106C6000436DD907044602D55830FFF778FA636DB3
:106C70009A0703D504F16000FFF771FA636D5B07B3
:106C800005D504F16800BDE81040FFF768BA10BDF3
:106C900008B5024B1B689B68019308BD780203008E
:106CA00008B5024B1B681B6D019308BD78020300F9
:106CB00008B5024B1B689B6D019308BD7802030069
:106CC00008B5024B1B681B6E019308BD78020300D8
:106CD00008B5034B1B68D3F89830019308BD00003A
:106CE0007802030008B5034B1B68D3F8F03001931A
:106CF00008BD00007802030008B5024B1B681B6B3F
:106D0000019308BD4802030008B5024B1B685B6B8A
:106D1000019308BD4802030008B5024B1B689B6B3A
:106D2000019308BD4802030008B5024B1B681B6CA9
:106D3000019308BD4802030008B5024B1B685B6C59
:106D4000019308BD4802030008B5024B1B689B6C09
:106D5000019308BD4802030008B5024B1B68DB6CB9
:106D6000019308BD4802030008B5024B1B685B6D28
:106D7000019308BD4802030008B5024B1B685B681D
:106D8000019308BD1802030008B5024B1B68DB68BD
:106D9000019308BD1802030008B5024B1B685B692C
:106DA000019308BD1802030008B5024B1B689B68DD
:106DB000019308BD2C02030008B5024B1B68DB6879
:106DC000019308BD2C02030008B5024B1B681B6928
:106DD000019308BD2C02030008B5024B1B685B69D8
:106DE000019308BD2C02030008B5024B1B681B6809
:106DF000019308BD2802030008B5024B1B68DB683D
:106E0000019308BD2802030008B5024B1B689B696B
:106E1000019308BD2802030008B5024B1B68DB691B
:106E2000019308BD2802030008B5024B1B681B6ACA
:106E3000019308BD2802030008B5024B1B685B6A7A
:106E4000019308BD2802030008B5024B1B689B6A2A
:106E5000019308BD2802030008B5024B1B68DB6ADA
:106E6000019308BD2802030008B5024B1B681B6B89
:106E7000019308BD2802030008B5024B1B685B6B39
:106E8000019308BD2802030008B5024B1B681B6C68
:106E9000019308BD2802030008B5024B1B685B691B
:106EA000019308BD6C02030008B5024B1B685B69C7
:106EB000019308BD6402030008B5024B1B681B6AFE
:106EC000019308BD6402030008B5024B1B689B6A6E
:106ED000019308BD6402030008B5024B1B689B6860
:106EE000019308BD6802030008B5024B1B68DB680C
:106EF000019308BD6802030008B5024B1B689B693B
:106F0000019308BD3802030008B5024B1B68DB691A
:106F1000019308BD3802030008B5024B1B681B6AC9
:106F2000019308BD3802030008B5024B1B689B6A39
:106F3000019308BD3802030008B5024B1B681B6BA8
:106F4000019308BD3802030008B5024B1B689B6B18
:106F5000019308BD3802030008B5024B1B681B688B
:106F6000019308BD3002030008B5024B1B685B6942
:106F7000019308BD3002030008B5024B1B68DB69B2
:106F8000019308BD3002030008B5024B1B681B6A61
:106F9000019308BD3002030008B5024B1B685B6A11
:106FA000019308BD3002030008B5024B1B68DB6B80
:106FB000019308BD3002030008B5024B1B681B6C2F
:106FC000019308BD3002030008B5024B1B685B6CDF
:106FD000019308BD3002030008B5024B1B689B6893
:106FE000019308BD3C02030008B5024B1B68DB6837
:106FF000019308BD3C02030008B5024B1B681B69E6
:10700000019308BD3C02030008B5024B1B685B6995
:10701000019308BD3C02030008B5024B1B689B6945
:10702000019308BD3C02030008B5024B1B68DB69F5
:10703000019308BD3C02030008B5024B1B681B6AA4
:10704000019308BD3C02030008B5024B1B689B6A14
:10705000019308BD3C02030008B5024B1B68DB6AC4
:10706000019308BD3C02030008B5024B1B681B6C72
:10707000019308BD3C02030008B5024B1B681B6866
:10708000019308BD4C02030008B5024B1B685B6806
:10709000019308BD4C02030008B5024B1B689B68B6
:1070A000019308BD4C02030008B5024B1B681B6925
:1070B000019308BD4C02030008B5024B1B685B69D5
:1070C000019308BD4C02030008B5024B1B689B6985
:1070D000019308BD4C02030008B5024B1B68DB6935
:1070E000019308BD4C02030008B5024B1B681B6AE4
:1070F000019308BD4C02030008B5024B1B685B6B93
:10710000019308BD6002030008B5024B1B681B6DAC
:10711000019308BD6002030008B5024B1B685B6D5C
:10712000019308BD6002030008B5024B1B68DB6ECB
:10713000019308BD6002030008B5024B1B681B6F7A
:10714000019308BD6002030008B5024B1B685B6831
:10715000019308BD2002030008B5024B1B685B6960
:10716000019308BD2002030008B5024B1B68DB6ACF
:10717000019308BD2002030008B5034B1B68D3F838
:107180008830019308BD00002002030008B5034BBE
:107190001B68D3F89430019308BD0000200203005F
:1071A00008B5024B1B68DB69019308BD440203006C
:1071B00008B5024B1B68DB6B019308BD440203005A
:1071C00008B5024B1B685B68019308BD40020300D1
:1071D00008B5024B1B689B68019308BD4002030081
:1071E00008B5024B1B68DB68019308BD4002030031
:1071F00008B5024B1B681B69019308BD40020300E0
:1072000008B5024B1B685B69019308BD400203008F
:1072100008B5024B1B689B69019308BD400203003F
:1072200008B5024B1B68DB69019308BD40020300EF
:1072300008B5024B1B681B6A019308BD400203009E
:1072400008B5024B1B681B6B019308BD400203008D
:1072500008B5024B1B685B6B019308BD400203003D
:1072600008B5024B1B681B6C019308BD400203006C
:1072700008B5024B1B685B6C019308BD400203001C
:1072800008B5024B1B681B68019308BD1C02030074
:1072900008B5024B1B685B68019308BD1C02030024
:1072A00008B5024B1B689B68019308BD1C020300D4
:1072B00008B5024B1B685B6A019308BD1C02030002
:1072C00008B5024B1B68DB6A019308BD1C02030072
:1072D00008B5024B1B681B6B019308BD1C02030021
:1072E00008B5024B1B68DB6B019308BD1C02030051
:1072F00008B5024B1B681B6C019308BD1C02030000
:1073000008B5024B1B685B6C019308BD1C020300AF
:107310000021FFF721BF7047064B994210B500F1DD
:107320000C0405D0084603F045F9002808BF0024E6
:10733000204610BDF0D50B0010B530210446FDF7F6
:10734000BEFB204610BD3021FDF7B9BBF0B50025CE
:10735000EC1C8C420DD86E1C445D875D974205D1B4
:107360002644B14205D31D60601CF0BD01342544A4
:10737000EEE70020F9E7034608461B68D3E9002141
:107380001047012A38B5044602D10B68236003E098
:10739000022A03D0032A0DD0002038BD08200D6832
:1073A000FDF787FB03460028F0D095E8030083E84B
:1073B0000300EBE700680028EED00821FDF77FFB13
:1073C000EAE710B58368044613B1032201469847E3
:1073D000204610BD10B54368013B0446436063B9C5
:1073E00003689B689847A368013BA3602BB9236897
:1073F0002046DB68BDE81040184710BDA0F13003FF
:10740000DAB2092A01D818467047A0F16103052BAA
:1074100001D857387047A0F14103052B94BF373886
:107420004FF0FF307047000010B500230370044B8D
:1074300004461868FFF790FC01232370204610BD16
:107440008CE6032010B5037804461BB1024B186884
:10745000FFF78AFC204610BD8CE6032082B003466D
:10746000086849686A4603C26A4603CA1860184633
:10747000596002B0704708B582798B799A4206D17B
:10748000062203F0BBF9B0FA80F0400908BD0020E5
:10749000FCE74FF0FF33036083800020704708B59E
:1074A0000246002101604160FFF7F3FF9171104631
:1074B00008BD000010B501230361054B024603F12E
:1074C000100153F8044B42F8044B8B42F9D110BD24
:1074D000AAC80B0000697047808970477047000098
:1074E00001232DE9F3410361344B0C460646024665
:1074F00003F1100153F8040B42F8040B8B42F9D14D
:1075000044B32421204603F01AFA04284FF0000562
:1075100023D1ADF8045001AFA51C063415F8020CB8
:10752000FFF76CFFB0F1000812DB15F8010CFFF754
:1075300065FF00280CDB023540EA0810A54207F879
:10754000010BEBD19DF8053033739DF80430737354
:107550000023336102B0BDE8F0814FF01008242110
:10756000204603F0ECF9A84207D8424600213046F5
:1075700002B0BDE8F04103F079B9B8F1000FE9D0ED
:10758000605DFFF73BFF030615D4000108F1FF38EB
:10759000C7B206F808702421204603F0D0F901355F
:1075A000A84208D9605DFFF729FF40B20028A4BFB8
:1075B000384306F808000135D1E700BFAAC80B0020
:1075C00013B504460191FFF775FF20460199FFF7B7
:1075D00087FF204602B010BD10B5D0E9063203EB9C
:1075E000C2029342184606D0046824888C4203F1F4
:1075F0000803F6D110BD0020FCE7000070B500259F
:10760000056006463020FDF754FA044688B1012390
:10761000C0E90133094B03604FF6FF7383810E30DD
:10762000FFF73DFFC4E90655C4E90855C4E90A550A
:10763000A57574600C343460304670BDDCD50B0029
:1076400037B50D46044601A8FFF7EEFE2A68D2F8CA
:1076500002302360D2F80630636001A8FFF7F2FE23
:10766000204603B030BD30B5054687B00C4601A8B2
:10767000FFF7DAFE2A68236812881B889A420DD128
:10768000294602A8FFF7DCFF214604A8FFF7D8FF30
:1076900004A902A8FFF7EFFE044600B9002401A8E0
:1076A000FFF7D0FE204607B030BD000010B50446FD
:1076B0006420FDF7FEF968B10023C0E90033C0E99A
:1076C0000233C0E90433C0E906330362C362C36313
:1076D000C364C365206020B90A4A0B490A20FFF73A
:1076E0000BFD0020FFF7D4FA20B1064A07490A2013
:1076F000FFF702FD216806480022FFF7F3FA204653
:1077000010BD00BF896D0B0014D50B0052D50B00C6
:10771000FD7B0B0010B50A4C2378BFF35B8FDB07B2
:107720000CD42046FDF7DAF940B10648FFF7BEFF5A
:107730002046FDF7D8F9044803F04EF8014810BD83
:1077400088E6032090E60320ED780B0008B50020C2
:10775000FFF79EFA00EAE07008BD19B90A4608462C
:10776000FFF79EBAD1E900010022F9E770B5D0E930
:107770000053044605EB0316AE4204D0284602F03F
:1077800073F81035F8E72068FFF782FD204670BDDA
:1077900038B5141E4368054602DB62189A4200DDC4
:1077A0005C1A2A68501801191A44521A03F044F856
:1077B0006A68121B6A6038BD37B50A4604460D4632
:1077C00001ABD0E90001FFF7C1FD024638B10199D4
:1077D0002046FFF7DDFF29462046FFF7EDFF03B007
:1077E00030BD10B50C4629B90A460846BDE8104020
:1077F000FFF75EBA01212046FFF7DEFFD4E9000162
:107800000022F3E738B504461546FFF7A6FF002827
:107810000ADB29462046FFF7E4FF002804DBBDE829
:1078200038400020FFF74CBA38BD000038B50023BF
:107830000446836008200D46FDF73BF918B12B681C
:1078400003606B684360034BE360034B2060A360FD
:10785000204638BD77730B0083730B000B68036001
:1078600013B15A6801325A60704710B551F8043BA1
:10787000044640F8043BFFF7F1FF204610BD10B569
:107880000446006808B1FFF7A5FD204610BD70B59D
:10789000D0E90053044605EBC306AE4204D0281DD0
:1078A000FFF7EDFF0835F8E72068FFF7F1FC204609
:1078B00070BD70B5D0E90053044605EBC306AE4277
:1078C00004D0281DFFF7DBFF0835F8E72068FFF735
:1078D000DFFC204670BD10B504462430FFF7E9FFF9
:1078E00004F11800FFF7D3FF10BD000070B5174B6F
:1078F0001C6854B304F15400FFF763FD04F1440025
:10790000FFF75FFD04F13400FFF75BFD04F1240095
:10791000FFF757FDD4E9065305EBC306AE4204D08A
:10792000281DFFF7ACFF0835F8E7A069FFF7B0FCAA
:1079300004F10C00FFF7BDFF2046FFF7A8FF20462B
:107940006421BDE87040FDF7BAB870BD90E6032031
:10795000826810B50AB902F029FEBDE81040C3687C
:10796000184738B50D1E0446006803DDFFF798FC84
:1079700018B938BDFFF78CFC00202060A5600120FD
:10798000F7E708B583688B4202DAFFF7EAFF08BD24
:107990000120FCE72DE9F0410F4641681D461944DE
:1079A000836899420446904612DC266862683E4429
:1079B000D21B3146701902F03FFF2A46414630463D
:1079C00002F02CFF63682B4463600120BDE8F08166
:1079D000FFF7C7FF0028E8D1F8E7F8B50D46D0E972
:1079E00001139942044616460BDA27686268791932
:1079F000521B481C02F020FF7E5563680133636010
:107A0000F8BD0131FFF7ADFF0028EED1F8E70A46D7
:107A10004168FFF7E2BF2DE9F74304461D460F46D4
:107A200001AB90460A46D0E900019DF82890FFF787
:107A30008DFCAE1C63680246B9F1000F26D128B355
:107A400033441B1AFF2B09D801992046FFF7A0FEEB
:107A5000616820463144FFF794FF18B9606803B0AD
:107A6000BDE8F0836A1C0199D2B22046FFF7B5FF4A
:107A700001993A4601312046FFF7AFFF01992B46A5
:107A8000424602312046FFF785FFE7E7F118FF295C
:107A9000E4D82046FFF775FF0028DFD0691CC9B283
:107AA0002046FFF7B4FF39462046FFF7B0FF616874
:107AB0002B464246E6E730B49DF808501AB10295CD
:107AC00030BCFFF7A8BF406830BC70471FB500232B
:107AD000C0E9003383600622009301238DF80F2054
:107AE00019460DF10F020446FFF7E5FF204604B0EA
:107AF00010BD8842F8B504460D46164614D990428A
:107B000013D2A2F10806751AA1F108072C44B74256
:107B100018D01CB131462046FFF7A7FE301DFFF7F5
:107B2000AEFE083E083CF2E70CD0B5420AD01CB1CC
:107B300029462046FFF799FE281DFFF7A0FE0835CD
:107B40000834F2E7F8BDF7B5044646686846FFF723
:107B50008CFED4E901739F4212DB0137002F29DD2F
:107B6000F800FFF78DFB0546F0B1D4E9001201EBF8
:107B7000C202FFF7BEFF2068FFF78AFB2560A760FF
:107B80002368626803EBC60603EBC202314606F1C6
:107B90000800FFF7AEFF1EB169463046FFF765FEED
:107BA000636801336360012501A8FFF768FE28467A
:107BB00003B0F0BD0025DEE7F8B5D0E90043054687
:107BC0000F4604EBC306A64205D039462046FFF710
:107BD0004AFD08B114B9F8BD0834F4E7201DFFF7D9
:107BE0004EFED5E9003204F1080103EBC202204643
:107BF000FFF77FFF6B68013B6B60ECE72DE9F0411D
:107C000005468EB003A80C46FFF70EFC2E68F31E47
:107C10000D2B3CD8DFE813F00E0057003B00D300DB
:107C20003B003B003B003B003B009D009D009D0056
:107C30009D009D0004A8FFF7E1FC049BAA891A801F
:107C40006968049808310230FFF708FC04A906A807
:107C5000FFF70BFE06A904F11800FFF774FF0546B5
:107C600007A8FFF70CFEC5B92023CDE906355E4B0A
:107C70005E49009306AA2B460120FFF745FA049BB4
:107C800029461888FFF724F805A8FFF7F8FD03A890
:107C9000FFF7D8FB0EB0BDE8F081E36A23B104A979
:107CA00004F12400FFF754FE05A8FFF7E8FD2021AA
:107CB0000023CDE906134E4A00924C4906AA012042
:107CC000FFF722FAE3E7A9892046FFF785FC06467D
:107CD0000028DCD00568D5E906324FF6FF7129800F
:107CE00003EBC2029A4203D053F8080B4180F9E734
:107CF000D5E9037307EBC308B84504D0381DFFF777
:107D0000BEFD0837F8E700232B61D5E9067307EBC2
:107D1000C308B84504D0381DFFF7B1FD0837F8E7B0
:107D20000023EB61AB72E36B23B1314604F1340005
:107D3000FFF70EFE33684FF6FF721A80314604F1EA
:107D40001800FFF739FF20220023CDE90623294A36
:107D5000B2E7A9892046FFF73FFC002897D0E36CE3
:107D6000002B94D000230D2EADF8163001D0102E2C
:107D700017D1002369681A4606258DF8153004913D
:107D80008DF814200690DDE9040109AB8DF81C6024
:107D9000089583E80300236D06A904F14400984781
:107DA00075E70F2E01BF2B7A696803F001020825E1
:107DB0000FBFC3F340031A4619461D46DDE7A989E4
:107DC0002046FFF709FC014600283FF460AFE36D51
:107DD000002B3FF45CAF6B68069306AA236E04F198
:107DE0005400984753E700BF94D50B002BD50B00E8
:107DF000BAD50B00C4D50B0013B50B460246D0E92B
:107E000000016C4684E8030093E8030082E8030065
:107E100094E8030083E8030002B010BD38B50546BE
:107E20000C46FFF7E9FFAB68A268AA60A360EB68A5
:107E3000E268EA60E36038BD10B504688AB03434A3
:107E4000B9B1CDE9001202A86946FFF7EFFC0023A3
:107E500006A902A80893FFF7E1FF214606A8FFF74D
:107E6000DDFF06A8FFF7ADFA02A8FFF7AAFA0AB0ED
:107E700010BD0491EBE710B504688AB02434B9B1A1
:107E8000CDE9001202A86946FFF7D0FC002306A93D
:107E900002A80893FFF7C2FF214606A8FFF7BEFF1E
:107EA00006A8FFF78EFA02A8FFF78BFA0AB010BDFA
:107EB0000491EBE7024800230360FEF73DBF00BFDB
:107EC0008CE60320002240681146FFF7B1B900227A
:107ED00040681146FFF7BCB940680022FFF7B0B90F
:107EE0004068002281F00101FFF79AB90023406841
:107EF0001A461946FFF78CB9002340681A461946FE
:107F0000FFF77EB9002240681146FFF771B90022E1
:107F100040681146FFF75CB9406800220221FFF774
:107F20005FB9002340681A46FFF74AB9024B0322A3
:107F30005A60024A1A60704794E6032000D60B008C
:107F40007047F8B5064615460C468F18BC4206D059
:107F5000336814F8011B9B6830469847F6E72846BB
:107F6000F8BD007C0022FEF75FBF007C0021FEF719
:107F700063BF007C0021FEF767BF007C0021FEF795
:107F80006BBF007C0021FEF76FBF10B514210446C3
:107F9000FCF795FD204610BD38B5044615464FF454
:107FA0007A730022C4E90123094B21740846236037
:107FB0002946FEF769FFBF3008D16B69DB0705D59D
:107FC0006868FFF765F9E868FFF762F9204638BD91
:107FD0003CD60B00007C0022FEF706BF0023007C8D
:107FE0001A461946FEF708BF007C0022FEF70CBFB8
:107FF000C9B2FFF7F9BF007C0022FEF70DBF0121D7
:10800000FFF7F9BF704710B518210446FCF757FD7C
:10801000204610BDF0B5037D062B8DB00E4600F155
:1080200004074FF0000412D000F1080515F8011DF7
:108030000A22304601F0FDFAAF42044419D0002C68
:10804000F4D02E21304601F0DBFA0444EEE72F2372
:108050006A4639460A208DF80040FEF725FF68463B
:10806000FCF7CCFC33680246DB686946304698472B
:10807000044620460DB0F0BD10B5054B0446112254
:1080800040F8043B002102F0F1FB204610BD00BF88
:1080900064D60B000346074A10B543F8042B01F1E0
:1080A000100251F8044B43F8044B9142F9D10A787D
:1080B0001A7010BD64D60B00037D042B04D14068F8
:1080C000003818BF01207047062B07D143683BB921
:1080D00083682BB9C3681BB90069F1E700207047BA
:1080E0000120704710B59DF8084044EA032343EA95
:1080F000024242EA016104234160037510BD0000A1
:1081000007B5064B0360CB7800938B784A780978E3
:10811000FFF7E8FF03B05DF804FB00BF64D60B0077
:1081200000F11003012213F8101C0129184608D190
:1081300053F8041C02EB4102013A03F11003F2D19F
:108140007047022904BF53F8041C5218F4E70EB418
:10815000F0B588B000AF07F13405102155F8042BB5
:108160007A6004462B467818FD60FFF7A1F80F28C7
:108170007A681AD900F1080323F007036E46ADEBC5
:10818000030D411C2B466846FD60FFF791F8021E67
:1081900004DD236869469B6820469847B54620372A
:1081A000BD46BDE8F04003B070470028F7D0236813
:1081B00002469B6807F1100120469847EFE738B563
:1081C0000B6803604D6843689D42044608D015B1B2
:1081D0006B6801336B60606808B1FFF7FBF865609E
:1081E00038BD07B503688DF807109B6801220DF1B3
:1081F0000701984703B05DF804FB0B4611460022C7
:1082000010B5C0E90022044683600BB9204610BDBA
:10821000FFF7D5FFFAE78368EBB11A78032A1AD87B
:10822000DFE802F00417021B0520704702685B6854
:108230005268D05C2D2812D0A0F13003092B0ED942
:1082400074280ED066280CD0A0F16E035842584115
:1082500070470620704700207047042070470320B5
:1082600070470220704710B50446FFF7D4FF02287C
:108270000ED0C31EDBB2012B14D82268A36850684D
:108280005B68BDE810400A220021184403F028BAB8
:108290002268A36852685B68D05CA0F174035842FE
:1082A000584110BD0020FCE738B50023C0E9003379
:1082B00004460E48C4E90203A9B10B78032B06D08B
:1082C0008BB9136858684B68C35C6E2B07D0136872
:1082D0004D6858688B6828445B1BA060E3601146BA
:1082E0002046FFF76CFF204638BD00BFD3D60B00F9
:1082F00038B500250B46C0E90055C0E90255C0E974
:108300000455044611464BB11A78012A06D103F1EF
:108310001002DB6882604361FFF751FF204638BDE1
:1083200010B54369044663B18068E060013B1030DA
:10833000A0602061636113B1FFF7F2FEA06001202D
:1083400000E0184610BD10B57D210446FFF749FF37
:1083500001232371204610BD08B50379012B02D0FB
:10836000022B04D008BD2C21FFF73BFFFAE73A218E
:10837000FAE710B50446FFF7EFFF20467B21FFF731
:1083800030FF00232371204610BD000013B50446C2
:108390000191FFF7E1FF2368019ADB68034920465A
:1083A000984701232046237102B010BDB8D70B00B7
:1083B00013B504460191FFF7CFFF2368019ADB68EC
:1083C00003492046984701232046237102B010BD7F
:1083D00070D60B002DE9F0470D4622219046044649
:1083E000FFF7FFFEDFF8A490A8442F464745BA46A2
:1083F0003DD017F8016B222E06D05C2E04D03046FB
:1084000002F0F4F90028F1D12368AAEB05029B6879
:108410002946204698475C212046FFF7E2FE0D2EB4
:108420000AD8072E1CD9A6F10803052B18D8DFE8B7
:1084300003F00D0F11171315222E01D05C2E0FD152
:1084400031462046FFF7CDFE3D46CFE76221F8E7F3
:108450007421F6E76E21F4E76621F2E77221F0E776
:1084600023683246DB68494620469847ECE7BD4220
:1084700005D023687A1B9B6829462046984722210D
:108480002046FFF7AEFEBDE8F08700BF73D60B00B5
:1084900013B50446CDE90021FFF75EFF2046DDE974
:1084A0000021FFF797FF02232046237102B010BD81
:1084B00013B50446CDE90021FFF74EFF2046DDE964
:1084C0000021FFF787FF01232046237102B010BD72
:1084D00080680368DB6818477047084611B10B686D
:1084E0005B6818477047704770477047704738B5EA
:1084F00004460D4600682E2102F0FBF92368C31ADA
:108500002B6023B1037803B1013023682060184643
:1085100038BD10B50C210446FCF7D1FA204610BD39
:1085200010B504210446FCF7CAFA204610BD10B568
:1085300004210446FCF7C3FA204610BDFEF70CBC2C
:1085400008B5FCF751FAB0FA80F0400908BD704751
:1085500010B50C4601F02CFE844210D001F0FEFF55
:10856000844205D101F0FAFFBDE8104001F0BBBD27
:108570002CB1236820465B68BDE81040184710BD49
:108580000B6803604B68436013B15A6801325A604C
:10859000704713B5044608460191FCF72FFA01997C
:1085A0000246204602B0BDE81040FFF781BF13B578
:1085B000044608460191FCF721FA23680199DB681B
:1085C0000246204602B0BDE81040184707B50368D0
:1085D0008DF80710DB6801220DF10701984703B001
:1085E0005DF804FB0A6802604A6842600022C0E944
:1085F000022210B502618C688460CC68C4600C698A
:108600008A60CA6004610A6110BD00002DE9F74F5D
:10861000D0E900844FF0140A00930AFB04F4184BCD
:10862000A41017465C434546002C21DD66100AFB6A
:1086300006F005EB00093A46B9F804B02858019154
:108640005F4528BF5A4602F066F9002801994FF0AD
:1086500001030BD15F4503D1009A13703446E3E761
:10866000FCD9A61B09F11405013EF7E7F9DBF5E794
:10867000A5EB08050248AD10684303B0BDE8F08FD4
:10868000CDCCCCCC7FB50369057E019103B3F9B1A4
:10869000002600F10C04039603A901A8FFF727FFA9
:1086A0000146A8B10DF10B03039A8DF80B6020462B
:1086B000FFF7ACFF9DF80B3053B12368142404FB83
:1086C0000034083434F9023C002BA8BFDDB2E3E7E4
:1086D000284604B070BD0EB4F0B58CB000AF07F101
:1086E0004405044655F8042B7A602B46202107F1F7
:1086F0001000FD60FEF7DCFD1F287A681AD900F132
:10870000080323F007036E46ADEB030D411C2B4617
:108710006846FD60FEF7CCFD021E04DD2368694655
:10872000DB6820469847B5463037BD46BDE8F04087
:1087300003B070470028F7D023680246DB6807F1D2
:10874000100120469847EFE710B5094C2378BFF396
:108750005B8FDB0709D42046FCF7C0F928B120461F
:10876000FCF7C1F9034802F037F8034810BD00BF19
:10877000A0E60320E7840B0048E3032010B5094C72
:108780002378BFF35B8FDB0709D42046FCF7A6F9FB
:1087900028B12046FCF7A7F9034802F01DF803486A
:1087A00010BD00BFA4E603204F850B004CE303205F
:1087B00038B500250446C0E90055C0E90455856078
:1087C000856140F8245FFEF7B7FAFFF7BDFFE0616F
:1087D000FFF7D4FF25732062204638BD10B50A4C40
:1087E0002378BFF35B8FDB070CD42046FCF776F9C8
:1087F00040B10648FFF7DCFF2046FCF774F9044857
:1088000001F0EAFF014810BD9CE60320ACE603201E
:10881000318D0B00024A034903480023FEF78CBC4C
:10882000158B0B00A18A0B00218A0B0000231A462E
:1088300019461846FEF780BC37B58D680446684671
:10884000FFF79EFE6A4629462046FFF751FD01A824
:10885000FFF715F8204603B030BD37B5CD680446A4
:108860006846FFF78DFE6A4629462046FFF71CFD45
:1088700001A8FFF704F8204603B030BD37B50D69F5
:1088800004466846FFF77CFE6A4629462046FFF705
:10889000B4FC01A8FEF7F3FF204603B030BD000092
:1088A00070B58AB00D46014604A8FFF7C5FF144E07
:1088B00004A8FFF735FDE8B104A96846FFF7CDFF2E
:1088C00002983146FFF73CFE044610B12C1E18BF3B
:1088D000012401A8FEF7D3FF002CE9D004A96846C3
:1088E000FFF7CCFF6846FFF7BEFC286001A8FEF743
:1088F000C6FFDDE705A8FEF7C2FF0AB070BD00BFE6
:1089000079D60B0037B50C46204613491546FCF7BF
:108910006BF850B901F04CFC4FF4165101F038FCE3
:1089200003B0BDE8304001F043BC0C492046FCF7E1
:108930005BF878B94FF4165301A928460193FFF765
:10894000AFFF01F00BFE019901F0CAFB01F006FE3A
:1089500003B030BD0020FBE77ED60B0085D60B00B0
:1089600070B5D0E900531426044606FB0356AE4208
:1089700005D005F10800FFF7F3FF1435F7E720688D
:10898000FEF786FC204670BD10B504460C30FFF79C
:10899000E7FF2046FEF7EAFE204610BD10B5044B67
:1089A000044640F8043BFFF7EFFF204610BD00BF30
:1089B000C0C90B0010B50446FFF7F0FF2046242184
:1089C000FCF77DF8204610BD10B5034B036004464C
:1089D000FFF7E4FF204610BD20D70B0010B504467A
:1089E000FFF7F2FF20462421FCF769F8204610BD6E
:1089F0000022C0E9002210B582600C6804604C6857
:108A000044608C680A604A6084608A6010BD10B55A
:108A1000036804461868FEF7A7F9204610BD000059
:108A20002DE9F04F87B0804603931C4B5B68C3F37E
:108A30000803894616466BB9FFF7D0FE044600F1DD
:108A40002403406A0593FFF779FD237B2BB105A82A
:108A5000FFF7DDFF07B0BDE8F08F01232373D4E9F2
:108A600000535FFA89F905EB830AAA4512D055F83D
:108A7000047B3146381DFFF705FE8145F5D33B6881
:108A8000039A0092D3F808B04A4633464146384626
:108A9000D847EAE700232373D9E700BF00ED00E0E1
:108AA0002DE9F74F9B461A4B5B68C3F308038046DA
:108AB000894616466BB9FFF791FE044600F1240380
:108AC000406A0193FFF73AFD237B2BB101A8FFF722
:108AD0009EFF03B0BDE8F08F01232373D4E9005358
:108AE000F6B205EB830A55450ED055F8047B59467E
:108AF000381DFFF7C7FD8642F5D33B684A46DB6861
:108B0000414638469847EEE700232373DEE700BF6F
:108B100000ED00E02DE9F341164B5B68C3F3080359
:108B200005460F461BBBFFF759FE00F12403044620
:108B3000406A0193FFF702FDD4E90063462406EB87
:108B40008308B04509D101A8FFF761FFA542B4BF72
:108B50000020012002B0BDE8F08156F8040B394630
:108B60000430FFF78FFD8442A8BF0446E9E70020E8
:108B7000F0E700BF00ED00E0F8B5D0E901539D42F9
:108B800004460E460DDB6F1C002F006804DDB900A3
:108B9000FEF786FB18B9F8BDFEF77AFB00202060CF
:108BA000A7602768626807EB85019200A2EB850247
:108BB000081D01F041FE47F82560636801336360DA
:108BC0000120E8E737B500F124030446406A019329
:108BD0000D46FFF7B3FCD4E9003203EB8202934267
:108BE00019460BD00968A94203F10403F7D101A883
:108BF000FFF70DFF0025284603B030BD294620466B
:108C0000FFF7BAFF05460028F1D06368012B01D1B8
:108C1000FFF700FE01A8FFF7FAFEECE770B5044687
:108C2000D0E900020B4600EB820282420FD00146DF
:108C30001D6851F8046BAE4207D1521A01F0FCFDD9
:108C40006368013B6360012070BD0846EDE70020CA
:108C5000FAE71FB500F124030446406A019103932B
:108C6000FFF76CFC01A92046FFF7D8FF18B1636835
:108C70000BB9FFF7DBFD03A8FFF7C9FE04B010BD79
:108C800070B5D0E904561823044603FB0656AE42DD
:108C900015D005F110012046FFF7C0FF63680BB93E
:108CA000FFF7C4FDE06929690368DB6898476969D3
:108CB00019B1206A0368DB6898471835E7E7D4E9FB
:108CC0000453182606FB0356AE4204D0284600F093
:108CD000CBFD1835F8E70023636170BD73B504461A
:108CE000FFF7A4FD04F12403606A0193FFF726FC5B
:108CF0002046FFF7C5FF01A8FFF789FE606A08B1AB
:108D0000FEF722F8D4E90453182606FB0356AE42B8
:108D100004D0284600F0A8FD1835F8E72069FEF7D2
:108D2000B7FA2068FEF7B4FA204602B070BD000022
:108D30000148FFF7D3BF00BFACE603208842F8B577
:108D400004460D46164615D9904214D2A2F11406D7
:108D5000751AA1F114072C44B7421AD01CB1314640
:108D60002046FFF73FFC06F10800FFF7F9FD143E2F
:108D7000143CF1E70DD0B5420BD01CB1294620467A
:108D8000FFF730FC05F10800FFF7EAFD1435143455
:108D9000F1E7F8BD8842F8B504460D46164614D9E9
:108DA000904213D2A2F11006751AA1F110072C44BB
:108DB000B74218D01CB13146204600F0D1FD3046F4
:108DC00000F052FD103E103CF2E70CD0B5420AD044
:108DD0001CB12946204600F0C3FD284600F044FDA2
:108DE00010351034F2E7F8BD70B50E1E054611DDE2
:108DF0003001FEF745FA044658B1D5E9001201EBFF
:108E00000212FFF7C7FF2868FEF742FA2C60AE6037
:108E1000012070BD0024F6E72DE9F04F904695B093
:108E200000230391D8F804100A9346229942C0E91E
:108E30000033C0E90233C0E90433CDE90833044606
:108E4000027623DCD8E90057142303FB0757AF420F
:108E50003BD029460BA800F083FD0BA90FA8099E63
:108E600000F07EFDDDE9091399421BDA089B099A9F
:108E700003EB061603EB0212314606F11000FFF772
:108E800089FFEEB9099B0133099311E008A8FFF7A8
:108E9000ABFF0028D6D108A8FEF768FC204615B025
:108EA000BDE8F08F013108A8FFF79EFF0028DDD153
:108EB0000FA800F0D9FC0BA800F0D6FC1435C6E7CB
:108EC0000FA9304600F04CFDDCE70026CDE90B662B
:108ED0000D964FF01409DDE908239E427CDA330138
:108EE000D35806930BB90136F5E70023079309FB26
:108EF00006F302930BAD07A906A8FFF7F8FA82461E
:108F00000028F0D04FF000038DF817300146079A83
:108F10000DF117032846FFF779FB9DF817700190B4
:108F2000002F4AD1BDF81C30ADF84030CDE91177A3
:108F30004FF6FF73CDF83CA0ADF842301397D5E95A
:108F40000132934217DB03F1010ABAF1000F30DD61
:108F500009FB0AF0FEF794F9834660B3D5E90012E5
:108F600009FB0212FFF7EAFE2868FEF791F9C5F83F
:108F700000B0C5F808A02B68019A09FB023A6A689C
:108F8000514609FB02320AF11400FFF7D7FEBAF18D
:108F9000000F03D00FA95046FFF724FB6B68013385
:108FA0006B6011A8FFF7DCFC3FB10BA8FFF7D8FC02
:108FB00071E7BB46D8E70127F3E7019B2D6809FB62
:108FC0000355069B1B782BB9D8F80030029A13443E
:108FD0001B7CEB8008358EE7216822606268636045
:108FE000A36809920A9A0A93E368A2600B9A0B930A
:108FF0002369E2600C9A0C93636922610D9A0D93C8
:10900000039B089162612376CFE70000F0B5044628
:1090100087B00D462646194668461746FBF745FFBA
:109020000B4B46F8043B694603A8FBF73EFF03AA37
:1090300039463046FFF7F0FE03A8FBF7F5FE684619
:10904000FBF7F2FE034B23602046256207B0F0BD1C
:10905000C0C90B0008D70B00F0B50F4685B01D49FD
:109060000A9C384616461D46FBF7BEFCC0B9A4B1A3
:10907000294601A8FFF7BCFC1749242001F092FA09
:10908000054630B101AB32462146FFF7BFFF134B17
:109090002B6001A8FBF7C8FE2C46204605B0F0BDAA
:1090A0000F493846FBF7A0FC90B9002CF5D02946B3
:1090B00001A8FFF79DFC0849242001F073FA05463A
:1090C0000028E6D001AB32462146FFF79FFFE0E7DC
:1090D0000024E2E78DD60B00DCD80B0020D70B0074
:1090E00091D60B00014B024A1A607047A8E6032094
:1090F000A2D60B002DE9F047089DD0F82090044639
:109100000E461746984601F053F881454CD02B790E
:10911000190704D56A6954492046FFF7DCFAB8F10B
:10912000000F0DD05B212046FFF750FA4146204644
:10913000FFF73DFA23684D49DB6802222046984735
:109140002B79DA0723D5D5F808802F21404601F086
:1091500002FC08B100F1010841462046FFF727FA5A
:109160002B799B0708D53A212046FFF72FFAEA68AA
:109170003F492046FFF7AFFA2A79236812F0040F1F
:10918000DB6814BF3B493C490222204698472B79B3
:1091900058071DD529690B461A4613F8010B60B113
:1091A000202808D11946F7E7344800F082F9002852
:1091B000ADD0BDE8F0872828EED12368521ADB68CD
:1091C0002046984723682E49DB68042220469847AA
:1091D00000213846FDF7A8FF01462046FFF7E7F9D2
:1091E00023682549DB680222204698471EB1314694
:1091F0002046FFF7DCF92B7913F0300F2CD02368D1
:109200002049DB680222204698472B79D9060AD5E7
:1092100023681D49DB68072220469847AA691B4935
:109220002046FFF758FA2B799A0611D5DB0605D5AB
:1092300023681049DB6802222046984723681449B6
:10924000DB6820460A229847E9692046FFF7AFF914
:109250005D212046FFF7BAF923680E49DB682046F6
:109260000222BDE8F0471847A6D60B00ADD60B008A
:10927000B8D70B00B0D60B00B5D60B00D4E6032050
:10928000B3D60B00B8D60B00BBD60B00C3D60B0071
:10929000C6D60B00D1D60B002DE9F0410446076A73
:1092A0000D46164600F084FF874207D0206A036807
:1092B00032462946DB68BDE8F0411847034800F014
:1092C000F8F80028F2D0BDE8F08100BFD4E6032012
:1092D0002DE9F04385B0D0F820900C9C05460F4650
:1092E00090461E4600F064FF814505D1494800F0D4
:1092F000E0F8002840F08A802B6A474A01924FF03C
:10930000000901A803938DF80890FFF732F8494649
:109310004046FDF709FF41498046012201A8FFF7B9
:10932000B7F84146FFF735F93FB13D49012201A8A1
:10933000FFF7AEF83946FFF72CF93EB13949012263
:1093400001A8FFF7A5F83146FFF723F92379DF07D6
:109350000ED5A6682F21304601F0FDFA00B1461C5B
:109360003149012201A8FFF793F83146FFF711F9BF
:1093700023799E0707D52D49022201A8FFF788F817
:10938000E168FFF703F82379580714D526693346B7
:109390001F4613F8012B2AB1202A01D11E46F7E7F8
:1093A000282AF5D12249022201A8FFF771F8BA1B39
:1093B0003146FFF77DF82379190707D51D490122AA
:1093C00001A8FFF765F86169FEF7F2FF2379DA0675
:1093D00008D5042218490DEB0200FFF759F8A169DE
:1093E000FEF7D4FF23799B0607D51449062201A86E
:1093F000FFF74EF8E169FFF7CCF801A8FEF7A3FFED
:10940000286A0F4903680222DB68984705B0BDE867
:10941000F08300BFD4E60320F0D60B0083D60B0008
:109420005BC90B0080DC0B0042DA0B00D4D60B00CA
:10943000D7D60B0046C90B00DAD60B00DFD60B00DF
:10944000D1D60B00002340681A46FDF7B9BE40682C
:1094500000220221FDF7C4BE002240681146FDF73C
:10946000B7BE002240681146FDF7C2BE0023406827
:109470001A461946FDF7C4BE002340681A4619462D
:10948000FDF7C6BE40680021FDF7EABE4068002136
:10949000FDF7EEBE4068002281F00101FDF7C0BE7D
:1094A00040680022FDF7CCBE002240681146FDF75F
:1094B000CFBE002240681146FDF7BABE2DE9F04349
:1094C00095B014460D460746FEF7D6FD00211C2236
:1094D0000DA8009101F0CAF940230C9320466B4679
:1094E0000CAA0021FDF700FD044600284BD10246DE
:1094F00001216868FDF77CFE0221804622466868EB
:10950000FDF776FE009E81462146002E3BD00029C5
:1095100039D17368022B03D00A2B11D0F669F4E716
:10952000B8F1000FFAD0716906A8043107ADFEF753
:10953000E7FD0FCD3C1D0FC42B6823704146EDE7BE
:10954000B9F1000FEAD07469102201A801F08EF978
:1095500006238DF8143001AD04F10803183418689F
:1095600059682A4603C20833A3421546F7D101A918
:1095700006A807ADFEF78EFD0FCD3C1D0FC42B686E
:1095800023704946CAE70098FDF7A6FC384615B097
:10959000BDE8F083024B034A1A6000225A6070470C
:1095A000D4E6032068D70B00F8B506460D468F18A1
:1095B0000024BD420CD0336815F8011B9B6830466F
:1095C0009847031E01DB1C44F3E7002C08BF1C4630
:1095D0002046F8BD13B50446084659B10191FBF782
:1095E0000DFA23680199DB680246204602B0BDE807
:1095F0001040184702B010BD08B5FFF7EBFF08BDDB
:1096000003689B68184738B50D210546FFF7F8FF3A
:109610000A2104462846FFF7F3FF204438BD38B539
:109620000546FFF7D7FF04462846FFF7ECFF204426
:1096300038BD30B58BB00023012A8DF8243098BF97
:109640000A2209AC0D46B1FBF2F101FB125303F003
:10965000FF03092B94BF30333733DBB2AA4204F83F
:10966000013DEFD92146FFF7B5FF0BB030BD2DE925
:10967000F04186B000AF05460E46381D1421144651
:109680003B60FDF715FE13280ED8391D2846FFF75D
:10969000A1FF04461EB12846FFF7B5FF044420464B
:1096A0001837BD46BDE8F08100F1080323F0070339
:1096B000E846ADEB030D2246411C3B686846FDF7CA
:1096C000F7FD69462846FFF785FF0446C546E1E7F2
:1096D000014B00229A607047DCE603200021FDF771
:1096E00073BC0021FDF768BC10B504460846217024
:1096F000FDF742FC00236360204610BD13B504460D
:109700000078FFF7EEFF58B9207801904FF6FF710F
:10971000FDF722FC019802B0BDE81040FFF7DEBF64
:1097200002B010BD13B5044600780191FFF7D9FFD0
:10973000019948B920780190FDF70EFC019802B01C
:10974000BDE81040FFF7CABF02B010BD0078FFF7B8
:10975000C5BF0000400830B5186000241868884272
:10976000E5B206D90134082C02D040081860F5E7AC
:109770000725024B5B5D137030BD00BF9CD70B000B
:109780002DE9F04306468FB000780C46FFF7A9FF9D
:1097900000281BDB35781422002109A801F066F8A7
:1097A0000B23002209A92846ADF82430FDF7F4FB6D
:1097B0009DF82D3013B19DF82C5055B10027B946B6
:1097C000B846012523795DB1C3B100200FB0BDE8D3
:1097D000F083DDF830809DF834909DF83570F1E726
:1097E000002B35D1A368434508D18DF820908DF822
:1097F0002170BDF82020A3899A42E6D00023A168F9
:109800008DF80F300A9804AB0DF10F02FFF7A2FF9D
:10981000217985B989B9A36843450ED38DF8209085
:109820008DF82170BDF82020A3899A4205D1049BB0
:10983000434502D1C9E70029F9D100230193637B95
:1098400000939DF80F20237B3078FDF7ADFBBCE73C
:10985000CDE900552B462A460121F5E708B50078E9
:10986000FDF782FBC0B208BD10B504460068FDF7E5
:109870000FFD204610BD10B50446006808B1FDF785
:1098800007FD0023C4E90133236010BD38B5044649
:109890000D4600680131FDF703FD10B1C4E9000574
:1098A000012038BD10B50368044623B143688B42DC
:1098B00001D3012010BD2046FFF7E8FF0028F9D0B2
:1098C000A368002BF5D122681370F2E737B50D4677
:1098D000114601920446FFF7E5FF019A28B9204698
:1098E000FFF7C9FF204603B030BDA26029462068BB
:1098F00000F094FF2268A3680021D154F2E700230E
:1099000013B5C0E9003304468360037341B10846D0
:109910000191FBF773F8019902462046FFF7D6FF45
:10992000204602B010BD38B5054600680C4668B147
:109930006A688B689A4207D3096800F0E4FFA3685D
:10994000AB600023A36038BDFDF7A2FC23682B6049
:1099500063686B60A368AB600023C4E90033F1E780
:1099600010B50023C0E90033044683600373FFF79A
:10997000DAFF204610BD884210B5044605D00B68BA
:109980002BB18A681946FFF7A1FF204610BDFFF7EB
:1099900072FFFAE710B500230446C0E90033836084
:1099A0000373FFF7E8FF204610BD13B5044659B115
:1099B00008460191FBF722F8019902462046FFF77D
:1099C00085FF204602B010BDFFF755FFF9E702689A
:1099D0000B46096862B141B9806860B11078704780
:1099E000986840B10978484270471046FAF7FCBFC2
:1099F0000029F5D10846704708B5006840B100F06D
:109A0000F1FE51EC100BFAF781FF00EE100A08BDD1
:109A10009FED010AFBE700BF00000000054B02229A
:109A20001A60054B054A9A600020C3E90000FDF763
:109A30008BBB00BFF8E60320ECE603200000FFFF2D
:109A400013B503688DF80710DC6B01224FF0FF336C
:109A50000DF10701A04702B010BD10B40368DC6B24
:109A60004FF0FF33A4465DF8044B604713B513462F
:109A700002688DF80710D46B0DF107010122A04791
:109A800002B010BD10B54369B3F88620B3F8843036
:109A90009A42044608D06369B3F88420511CA3F8A5
:109AA00084101344187910BD03681B699847002877
:109AB000F1D14FF0FF30F6E7704743691868C043B3
:109AC000C00F704770470000064B994210B500F177
:109AD0000C0405D0084600F06DFD002808BF0024E6
